:020000040000FA
:1000000000008131B4292C00A3007F08A2007E08E3
:10001000A1007D08A0007C08A7007B08A6007A0844
:10002000A50079082C00B0002C00A40020082C00AA
:10003000AC002C0021082C00AD002C0022082C0064
:10004000AE002C0023082C00AF002C0025082C004B
:10005000B1002C0026082C00B2002C0027082C0030
:10006000B3002C002C082C00A0002C0032082C001F
:10007000A100FF0020088331BC2380312C00A100A7
:100080007F08A0002C00B6002C00A2002108A300CD
:100090002C00B7002C002C082C00A0002C003008ED
:1000A0002C00A100FF0020088331BC2380312C00EC
:1000B000A1007F08A0002C00B4002C00A2002108A1
:1000C000A3002C00B50037082C00A0002C002F083E
:1000D0002C00A1002C0030082C00A200FF002108F9
:1000E0008331BC2380317F082C00A100A0072008A9
:1000F0002C00B7002C002E082C00A1002C00310889
:100100002C00A200FF0021088331BC2380317F082E
:100110002C00A100A00720082C00B70036082C00F6
:10012000A0002C0037082C00A1002C002E082C0069
:10013000A2002C0030082C00A300FF00220883310D
:10014000BC2380312C00A3007F08A2002008A4005B
:100150002108A5002308A1002208A0002407A2006E
:100160002508A30021080318210FA30722082C004B
:10017000B6002C00A00023082C00B7002C00A10022
:100180002C002D082C00A2002C0031082C00A3000C
:10019000FF0022088331BC2380312C00A3007F089C
:1001A000A2002008A4002108A5002308A10022081D
:1001B000A0002407A2002508A30021080318210F8E
:1001C000A30722082C00B6002C00A00023082C0056
:1001D000B7002C00A1002C002D082C00A0002C0042
:1001E00032082C00A100FF0020088331BC2380319D
:1001F0007F082C00A0002C00AF002D082C00A000D0
:100200002C0030082C00A100FF0020088331BC2303
:1002100081312C00A1007F08A0002C00AD002C0033
:10022000A2002108A3002C00AE002C082C00A00086
:100230002C0033082C00A100FF0020088331BC23D0
:1002400081317F082C00A0002C00B3002C002C086A
:100250002C00A0002C0031082C00A100FF00200879
:100260008331BC2381312C00A300A1007F08A000B2
:100270002C00B1002C00A20023082C00B200B00119
:100280002C00AC012C0034082C00A0002C003508F8
:100290002C00A1002C0036082C00A2002C003708EE
:1002A0002C00A3002C002C082C00A800A4002C007B
:1002B0002D082C00A900A5002C002E082C00AA0057
:1002C000A6002C002F082C00AB00A7002808A400D3
:1002D000A00725080318250FA10726080318260FD5
:1002E000A20727080318270FA30720082C00B40033
:1002F0002C0021082C00B5002C0022082C00B60090
:100300002C0023082C00B7002C0030082C00A4007F
:100310002C0031082C00A900A5002C0032082C006C
:10032000AA00A6002C0033082C00AB00A7002A0866
:10033000A6002B08A7002408A800A400A0072908ED
:10034000A5000318250FA10726080318260FA207EA
:1003500027080318270FA3072008FD002108FE0027
:100360002208FF0023080800FB30FE008330FF0056
:1003700080308331622381312600B1007F08B000D4
:10038000FD30B2008330B30026003008B4003108DD
:10039000B500FF30B007031CB1033508340403195E
:1003A000312A04303207B400B501B50D3308B50762
:1003B0003408FE003508FF0080308331622381312C
:1003C0002600B7007F08B6003208FE003308FF00A1
:1003D00080308331622381312600B900B5007F0867
:1003E000B400B80002303207B400B501B50D3308CF
:1003F000B5073408FE003508FF00803083316223E2
:1004000082312600B500BB007F08BA00B400260088
:100410003608BA003708BB00FF30B607031CB70325
:100420003B083A0403192B2A3808FE003908FF005C
:10043000803083317F2382312600BA003408840063
:10044000350885003A088000B80A0319B90AB40AC9
:100450000319B50A072A06302600B2070318B30AA3
:10046000C4298231AD2A08002C00BD007F08BC00E1
:10047000BE00C001C1013E08F9003D08BF00FA00FE
:100480000030FB000030FC00A030FD008C30FE008E
:100490000030FF0000308031032082312C00BF008B
:1004A0007F08BE007E08BD007D08BC004030F9001A
:1004B0004230FA000F30FB000030FC003C08FD0029
:1004C0003D08FE003E08FF003F0883310C238231C7
:1004D0002C00BF007F08BE007E08BD007D08BC0068
:1004E000FB30BC07FF30031CBD07FF30031CBE07F9
:1004F000FF30031CBF070530F9000030FA00003060
:10050000FB000030FC003C08FD003D08FE003E08FA
:10051000FF003F0883310C2382312C00BF007F088D
:10052000BE007E08C100BD007D08BC00C000000008
:100530000000FF302C004007BC00FF30BD00410828
:100540000318410FBD073C08C0003D08C1003D082D
:100550003C04031D992A0000080021000E10200011
:100560000E1020000E14E8302C00C8000330C90023
:100570002C004808CA004908CB00FF30C807031CFC
:10058000C9034B084A040319DE2A0630CA00CB010E
:1005900000000000FF302C004A07CC00FF30CD00E7
:1005A0004B0803184B0FCD074C08CA004D08CB0071
:1005B0004D084C04031DCA2A0000B82A20000E1062
:1005C000E8302C00C8000330C9002C004808CA00DD
:1005D0004908CB00FF30C807031CC9034B084A0475
:1005E0000319B12A0630CA00CB0100000000FF3019
:1005F0002C004A07CC00FF30CD004B0803184B0FEE
:10060000CD074C08CA004D08CB004D084C04031D13
:10061000F72A0000E52A08002600A3007F08A200B0
:100620007E08A1007D08A0007C08A7007B08A6002A
:100630007A08A5007908A400A801A901AA01AB01C4
:100640002030AC00260023088039031D0130AD00A6
:10065000A035A10DA20DA30DA835A90DAA0DAB0DB6
:100660002D08031D281427082B02031D0A32260813
:100670002A02031D063225082902031D023224081E
:100680002802031C532B26002408A8022508031C5B
:10069000250FA9022608031C260FAA022708031CFF
:1006A000270FAB02201426002C03AD00AC002D0850
:1006B000031D222B2008FD002108FE002208FF0058
:1006C00023080800003A03196A2B803A0319722B99
:1006D000FF0100347E0884007F0885001200FF00BF
:1006E0000008080083318C23FD00FE0FFF03FF0A82
:1006F00083318C23FC007D08FF007C080800003A51
:100700000319862B803A03198C2B00347E08840051
:100710007F088500000808007F088A007E088200A4
:1007200008002C00C3007F08C2002C004208C4004F
:100730004308C500FF30C207031CC3034508440437
:100740000319BB2B0630C400C50100000000FF30B8
:100750002C004407C600FF30C70045080318450FAA
:10076000C7074608C4004708C50047084604031DDC
:10077000A72B0000952B08002600BC007F08BD00B9
:10078000BE01BF01C0010830260040020318DC2B67
:10079000BE35BF0DBC1FD52B0030C2003D08C100C7
:1007A000BE0742080318420FBF0726003C08C100DD
:1007B0004135BC00C00AC32B26003E08FF003F089D
:1007C00008002C00B9007F08B80000000000FF30CE
:1007D0002C003807BA00FF30BB0039080318390F66
:1007E000BB073A08B8003B08B9003B083A04031DB0
:1007F000E72B0000080001340034033404342E34A5
:0808000003340134003400341C
:020000040001F9
:02000E00E43FCD
:02001000FF3FB0
:00000001FF
